{
  "_format": "hh-sol-artifact-1",
  "contractName": "LendingPool",
  "sourceName": "contracts/LendingPool.sol",
  "abi": [
    {
      "inputs": [
        {
          "internalType": "address",
          "name": "",
          "type": "address"
        }
      ],
      "name": "balances",
      "outputs": [
        {
          "internalType": "uint256",
          "name": "",
          "type": "uint256"
        }
      ],
      "stateMutability": "view",
      "type": "function"
    },
    {
      "inputs": [],
      "name": "deposit",
      "outputs": [],
      "stateMutability": "payable",
      "type": "function"
    },
    {
      "inputs": [],
      "name": "getContractBalance",
      "outputs": [
        {
          "internalType": "uint256",
          "name": "",
          "type": "uint256"
        }
      ],
      "stateMutability": "view",
      "type": "function"
    },
    {
      "inputs": [
        {
          "internalType": "uint256",
          "name": "amount",
          "type": "uint256"
        }
      ],
      "name": "withdraw",
      "outputs": [],
      "stateMutability": "nonpayable",
      "type": "function"
    }
  ],
  "bytecode": "0x6080604052348015600f57600080fd5b5061058c8061001f6000396000f3fe60806040526004361061003f5760003560e01c806327e235e3146100445780632e1a7d4d146100815780636f9fb98a146100aa578063d0e30db0146100d5575b600080fd5b34801561005057600080fd5b5061006b6004803603810190610066919061031c565b6100df565b6040516100789190610362565b60405180910390f35b34801561008d57600080fd5b506100a860048036038101906100a391906103a9565b6100f7565b005b3480156100b657600080fd5b506100bf610217565b6040516100cc9190610362565b60405180910390f35b6100dd61021f565b005b60006020528060005260406000206000915090505481565b806000803373ffffffffffffffffffffffffffffffffffffffff1673ffffffffffffffffffffffffffffffffffffffff168152602001908152602001600020541015610178576040517f08c379a000000000000000000000000000000000000000000000000000000000815260040161016f90610433565b60405180910390fd5b806000803373ffffffffffffffffffffffffffffffffffffffff1673ffffffffffffffffffffffffffffffffffffffff16815260200190815260200160002060008282546101c69190610482565b925050819055503373ffffffffffffffffffffffffffffffffffffffff166108fc829081150290604051600060405180830381858888f19350505050158015610213573d6000803e3d6000fd5b5050565b600047905090565b60003411610262576040517f08c379a000000000000000000000000000000000000000000000000000000000815260040161025990610502565b60405180910390fd5b346000803373ffffffffffffffffffffffffffffffffffffffff1673ffffffffffffffffffffffffffffffffffffffff16815260200190815260200160002060008282546102b09190610522565b92505081905550565b600080fd5b600073ffffffffffffffffffffffffffffffffffffffff82169050919050565b60006102e9826102be565b9050919050565b6102f9816102de565b811461030457600080fd5b50565b600081359050610316816102f0565b92915050565b600060208284031215610332576103316102b9565b5b600061034084828501610307565b91505092915050565b6000819050919050565b61035c81610349565b82525050565b60006020820190506103776000830184610353565b92915050565b61038681610349565b811461039157600080fd5b50565b6000813590506103a38161037d565b92915050565b6000602082840312156103bf576103be6102b9565b5b60006103cd84828501610394565b91505092915050565b600082825260208201905092915050565b7f496e73756666696369656e742062616c616e6365000000000000000000000000600082015250565b600061041d6014836103d6565b9150610428826103e7565b602082019050919050565b6000602082019050818103600083015261044c81610410565b9050919050565b7f4e487b7100000000000000000000000000000000000000000000000000000000600052601160045260246000fd5b600061048d82610349565b915061049883610349565b92508282039050818111156104b0576104af610453565b5b92915050565b7f4465706f736974206d7573742062652067726561746572207468616e20300000600082015250565b60006104ec601e836103d6565b91506104f7826104b6565b602082019050919050565b6000602082019050818103600083015261051b816104df565b9050919050565b600061052d82610349565b915061053883610349565b92508282019050808211156105505761054f610453565b5b9291505056fea2646970667358221220b0d41ca812b7a8fde3ee62769d7b053a66c2cfe7827c76d8ff12949204051c2b64736f6c634300081c0033",
  "linkReferences": {},
  "deployedLinkReferences": {}
}