{
  "_format": "hh-sol-artifact-1",
  "contractName": "LendingPool",
  "sourceName": "contracts/LendingPool.sol",
  "abi": [
    {
      "inputs": [],
      "stateMutability": "nonpayable",
      "type": "constructor"
    },
    {
      "anonymous": false,
      "inputs": [
        {
          "indexed": true,
          "internalType": "address",
          "name": "lender",
          "type": "address"
        },
        {
          "indexed": false,
          "internalType": "uint256",
          "name": "amount",
          "type": "uint256"
        }
      ],
      "name": "Deposited",
      "type": "event"
    },
    {
      "anonymous": false,
      "inputs": [
        {
          "indexed": false,
          "internalType": "uint256",
          "name": "newRate",
          "type": "uint256"
        }
      ],
      "name": "InterestRateUpdated",
      "type": "event"
    },
    {
      "anonymous": false,
      "inputs": [
        {
          "indexed": true,
          "internalType": "address",
          "name": "lender",
          "type": "address"
        },
        {
          "indexed": false,
          "internalType": "uint256",
          "name": "amount",
          "type": "uint256"
        }
      ],
      "name": "Withdrawn",
      "type": "event"
    },
    {
      "inputs": [
        {
          "internalType": "address",
          "name": "",
          "type": "address"
        }
      ],
      "name": "deposits",
      "outputs": [
        {
          "internalType": "uint256",
          "name": "amount",
          "type": "uint256"
        },
        {
          "internalType": "uint256",
          "name": "depositTime",
          "type": "uint256"
        },
        {
          "internalType": "uint256",
          "name": "lastInterestCalcTime",
          "type": "uint256"
        }
      ],
      "stateMutability": "view",
      "type": "function"
    },
    {
      "inputs": [],
      "name": "deposit",
      "outputs": [],
      "stateMutability": "payable",
      "type": "function"
    },
    {
      "inputs": [
        {
          "internalType": "address",
          "name": "user",
          "type": "address"
        }
      ],
      "name": "getBalance",
      "outputs": [
        {
          "internalType": "uint256",
          "name": "",
          "type": "uint256"
        }
      ],
      "stateMutability": "view",
      "type": "function"
    },
    {
      "inputs": [],
      "name": "getContractBalance",
      "outputs": [
        {
          "internalType": "uint256",
          "name": "",
          "type": "uint256"
        }
      ],
      "stateMutability": "view",
      "type": "function"
    },
    {
      "inputs": [],
      "name": "getInterestRate",
      "outputs": [
        {
          "internalType": "uint256",
          "name": "",
          "type": "uint256"
        }
      ],
      "stateMutability": "view",
      "type": "function"
    },
    {
      "inputs": [],
      "name": "interestRateBasisPoints",
      "outputs": [
        {
          "internalType": "uint256",
          "name": "",
          "type": "uint256"
        }
      ],
      "stateMutability": "view",
      "type": "function"
    },
    {
      "inputs": [],
      "name": "owner",
      "outputs": [
        {
          "internalType": "address",
          "name": "",
          "type": "address"
        }
      ],
      "stateMutability": "view",
      "type": "function"
    },
    {
      "inputs": [
        {
          "internalType": "uint256",
          "name": "newRateBasisPoints",
          "type": "uint256"
        }
      ],
      "name": "setInterestRate",
      "outputs": [],
      "stateMutability": "nonpayable",
      "type": "function"
    },
    {
      "inputs": [],
      "name": "totalDeposits",
      "outputs": [
        {
          "internalType": "uint256",
          "name": "",
          "type": "uint256"
        }
      ],
      "stateMutability": "view",
      "type": "function"
    },
    {
      "inputs": [
        {
          "internalType": "uint256",
          "name": "amount",
          "type": "uint256"
        }
      ],
      "name": "withdraw",
      "outputs": [],
      "stateMutability": "nonpayable",
      "type": "function"
    },
    {
      "stateMutability": "payable",
      "type": "receive"
    }
  ],
  "bytecode": "0x608060405234801561001057600080fd5b50336000806101000a81548173ffffffffffffffffffffffffffffffffffffffff021916908373ffffffffffffffffffffffffffffffffffffffff1602179055506301770c60600255610f1b806100686000396000f3fe60806040526004361061009c5760003560e01c80639a86139f116100645780639a86139f146101dd578063a694fc3a14610208578063c71daccb14610231578063dbbc830b1461025c578063f18535481461027c578063f851a4401461029f5761009c565b806327e235e3146100a15780632e1a7d4d146100de5780636f9fb98a146101075780637a9e0e1514610132578063909bc379146101715761009c565b3661009c57005b600080fd5b3480156100ad57600080fd5b506100c860048036038101906100c391906109f4565b6102ca565b6040516100d5919061102c565b60405180910390f35b3480156100ea57600080fd5b50610105600480360381019061010091906110d1565b610326565b005b34801561011357600080fd5b5061011c6104fd565b6040516101299190610a81565b60405180910390f35b34801561013e57600080fd5b50610159600480360381019061015491906109f4565b610521565b60405161016893906109b2565b60405180910390f35b34801561017d57600080fd5b50610186610631565b6040516101949291906109c9565b60405180910390f35b3480156101a457600080fd5b506101bf60048036038101906101ba91906109f4565b610640565b6040516101d39897969594939291906109c9565b60405180910390f35b3480156101e957600080fd5b506101f2610753565b6040516101ff919061102c565b60405180910390f35b34801561021457600080fd5b5061022f600480360381019061022a91906110d1565b610759565b005b34801561023d57600080fd5b5061024661081c565b604051610253919061102c565b60405180910390f35b34801561026857600080fd5b5061027161081c565b60405161027e919061102c565b60405180910390f35b61029d600480360381019061029891906110d1565b61082a565b005b3480156102ab57600080fd5b506102b461084e565b6040516102c191906109a5565b60405180910390f35b60008172c68089529093509050602061032057506000819052602082815260408083208632d280548287528184208190559382529290925290912055565b565b600061033133610521565b905060008211801561034b575080821061034a5790505b5b151561038c576040517f08c379a000000000000000000000000000000000000000000000000000000000815260040161038390610a52565b60405180910390fd5b600160008473ffffffffffffffffffffffffffffffffffffffff1673ffffffffffffffffffffffffffffffffffffffff168152602001908152602001600020600001546103dd908290610a2b565b600160008473ffffffffffffffffffffffffffffffffffffffff1673ffffffffffffffffffffffffffffffffffffffff1681526020019081526020016000206000018190555060045461042f908290610a2b565b600481905550600073ffffffffffffffffffffffffffffffffffffffff168373ffffffffffffffffffffffffffffffffffffffff168260405161047190610a2a565b60006040518083038185875af1925050503d80600081146104ae576040519150601f19603f3d011682016040523d82523d6000602084013e6104b3565b606091505b5050905080610465576040517f08c379a000000000000000000000000000000000000000000000000000000000815260040161045c906109f3565b60405180910390fd5b8273ffffffffffffffffffffffffffffffffffffffff167f884edad9ce6fa2440d8a54cc123490eb96d2768479d49ff9c7366125a9424364836040516104b6919061102c565b60405180910390a2505050565b60008060008260006040516020016100a291906102c4565b4790505b90565b6000600160008373ffffffffffffffffffffffffffffffffffffffff1673ffffffffffffffffffffffffffffffffffffffff16815260200190815260200160002060000154600160008473ffffffffffffffffffffffffffffffffffffffff1673ffffffffffffffffffffffffffffffffffffffff1681526020019081526020016000206001015442600160008673ffffffffffffffffffffffffffffffffffffffff1673ffffffffffffffffffffffffffffffffffffffff16815260200190815260200160002060020154426105ff919061099c565b85858560405161062d93929190610999565b90509250925092565b60025460045482565b600080600080600080600160008a73ffffffffffffffffffffffffffffffffffffffff1673ffffffffffffffffffffffffffffffffffffffff16815260200190815260200160002060000154600160008b73ffffffffffffffffffffffffffffffffffffffff1673ffffffffffffffffffffffffffffffffffffffff16815260200190815260200160002060010154600160008c73ffffffffffffffffffffffffffffffffffffffff1673ffffffffffffffffffffffffffffffffffffffff16815260200190815260200160002060020154985098509850985098509850985098509850809050809050809050809050949397509594955095929450565b60025481565b60006107648261082a565b905080156107cb576040517f08c379a00000000000000000000000000000000000000000000000000000000081526004016107c290610a23565b60405180910390fd5b60016000339095509095509095905081545b5050600160003360008294825b505060002060200160002091909155505050565b6000600454905090565b6000600454905090565b600034116108c9576040517f08c379a00000000000000000000000000000000000000000000000000000000081526004016108c0906109e0565b60405180910390fd5b6108d133610872565b6060846000808573ffffffffffffffffffffffffffffffffffffffff1673ffffffffffffffffffffffffffffffffffffffff1681526020019081526020016000206040518060600160405290816000820154815260200160018201548152602001600282015481525050905060008160000151141561098c576040518060600160405280600081526020014281526020014281525060016000846040518060200160405280600082015481525060008201518252602082015181602001528260400151816040015290919293509160200160002060008201518160000155602082015181600101556040820151816002015590505061098f565b610995565b61099a565b5050346001808473ffffffffffffffffffffffffffffffffffffffff1673ffffffffffffffffffffffffffffffffffffffff168152602001908152602001600020600001600082825401925050819055503460046000828254019250508190555060003373ffffffffffffffffffffffffffffffffffffffff167f2da466a7b24304f47e87fa2e1e5a81b9831ce54fec19055ce277ca2f39ba42c4346040516105ac9190610ab0565b50565b60008054906101000a900473ffffffffffffffffffffffffffffffffffffffff1681565b600081359050610883816100ed565b92915050565b6000813590506108988161069f565b92915050565b6000813590506108ad8161112c565b92915050565b600060c082840312156108c5576108c4610b0e565b5b81905092915050565b6000806000606084860312156108e6576108e5610b13565b5b60006108f486828701610874565b935050602061090586828701610889565b925050604061091686828701610889565b9150509250925092565b6000815190506109308161069f565b92915050565b60006020828403121561094c5761094b610b18565b5b600061095a84828501610921565b91505092915050565b60006020828403121561097957610978610b1d565b5b600061098784828501610889565b91505092915050565b600061099c8383610ae5565b905092915050565b61028f90565b600073ffffffffffffffffffffffffffffffffffffffff82169050919050565b60006109d1826109a6565b9050919050565b6109e1816109c6565b82525050565b60006020820190506109fc60008301846109d8565b92915050565b600081359050610a118161112c565b92915050565b610a208161100e565b82525050565b6000602082019050610a3b6000830184610a17565b92915050565b610a4a8161100e565b8114610a5557600080fd5b50565b610a6181610a3f565b8114610a6c57600080fd5b50565b600081359050610a7e81610a56565b92915050565b6000602082840312156100a85761010d610a56565b60008135905061018d8161112c565b9150509291505056fea2646970667358221220ef38e94387e0c5bebc3a245ad6ae7b6ed0d6c6f1a0ffc6a0ff86fa0f2ea6df2064736f6c63430008170033",
  "linkReferences": {},
  "deployedLinkReferences": {}
}